{
  "contracts/HelloJi.sol": {
    "HelloJi": {
      "abi": [
        {
          "inputs": [],
          "stateMutability": "nonpayable",
          "type": "constructor"
        },
        {
          "inputs": [],
          "name": "getValueOfBlockchain",
          "outputs": [
            {
              "internalType": "uint256",
              "name": "",
              "type": "uint256"
            }
          ],
          "stateMutability": "view",
          "type": "function"
        },
        {
          "inputs": [
            {
              "internalType": "uint256",
              "name": "coin",
              "type": "uint256"
            }
          ],
          "name": "lender",
          "outputs": [],
          "stateMutability": "nonpayable",
          "type": "function"
        },
        {
          "inputs": [
            {
              "internalType": "uint256",
              "name": "coin",
              "type": "uint256"
            }
          ],
          "name": "receiver",
          "outputs": [],
          "stateMutability": "nonpayable",
          "type": "function"
        }
      ],
      "evm": {
        "bytecode": {
          "linkReferences": {},
          "object": "60806040526000805561271060015534801561001a57600080fd5b5061018a8061002a6000396000f3fe608060405234801561001057600080fd5b50600436106100415760003560e01c80637fcf86f0146100465780639ab8891414610064578063a81ccdc514610092575b600080fd5b61004e6100c0565b6040518082815260200191505060405180910390f35b6100906004803603602081101561007a57600080fd5b81019080803590602001909291905050506100c9565b005b6100be600480360360208110156100a857600080fd5b81019080803590602001909291905050506100d5565b005b60008054905090565b6100d2816100e1565b50565b6100de81610112565b50565b6100e9610142565b80156100fa57506001546000548201105b1561010f578060008082825401925050819055505b50565b61011a61014b565b801561012a575060008160005403115b1561013f578060008082825403925050819055505b50565b60006001905090565b6000600190509056fea26469706673582212205c36da4f5ef3d423c96e0d6a2a5d2c8efd57ed962cad9c073083319a613938eb64736f6c63430007030033",
          "opcodes": "PUSH1 0x80 PUSH1 0x40 MSTORE PUSH1 0x0 DUP1 SSTORE PUSH2 0x2710 PUSH1 0x1 SSTORE CALLVALUE DUP1 ISZERO PUSH2 0x1A JUMPI PUSH1 0x0 DUP1 REVERT JUMPDEST POP PUSH2 0x18A DUP1 PUSH2 0x2A PUSH1 0x0 CODECOPY PUSH1 0x0 RETURN INVALID PUSH1 0x80 PUSH1 0x40 MSTORE CALLVALUE DUP1 ISZERO PUSH2 0x10 JUMPI PUSH1 0x0 DUP1 REVERT JUMPDEST POP PUSH1 0x4 CALLDATASIZE LT PUSH2 0x41 JUMPI PUSH1 0x0 CALLDATALOAD PUSH1 0xE0 SHR DUP1 PUSH4 0x7FCF86F0 EQ PUSH2 0x46 JUMPI DUP1 PUSH4 0x9AB88914 EQ PUSH2 0x64 JUMPI DUP1 PUSH4 0xA81CCDC5 EQ PUSH2 0x92 JUMPI JUMPDEST PUSH1 0x0 DUP1 REVERT JUMPDEST PUSH2 0x4E PUSH2 0xC0 JUMP JUMPDEST PUSH1 0x40 MLOAD DUP1 DUP3 DUP2 MSTORE PUSH1 0x20 ADD SWAP2 POP POP PUSH1 0x40 MLOAD DUP1 SWAP2 SUB SWAP1 RETURN JUMPDEST PUSH2 0x90 PUSH1 0x4 DUP1 CALLDATASIZE SUB PUSH1 0x20 DUP2 LT ISZERO PUSH2 0x7A JUMPI PUSH1 0x0 DUP1 REVERT JUMPDEST DUP2 ADD SWAP1 DUP1 DUP1 CALLDATALOAD SWAP1 PUSH1 0x20 ADD SWAP1 SWAP3 SWAP2 SWAP1 POP POP POP PUSH2 0xC9 JUMP JUMPDEST STOP JUMPDEST PUSH2 0xBE PUSH1 0x4 DUP1 CALLDATASIZE SUB PUSH1 0x20 DUP2 LT ISZERO PUSH2 0xA8 JUMPI PUSH1 0x0 DUP1 REVERT JUMPDEST DUP2 ADD SWAP1 DUP1 DUP1 CALLDATALOAD SWAP1 PUSH1 0x20 ADD SWAP1 SWAP3 SWAP2 SWAP1 POP POP POP PUSH2 0xD5 JUMP JUMPDEST STOP JUMPDEST PUSH1 0x0 DUP1 SLOAD SWAP1 POP SWAP1 JUMP JUMPDEST PUSH2 0xD2 DUP2 PUSH2 0xE1 JUMP JUMPDEST POP JUMP JUMPDEST PUSH2 0xDE DUP2 PUSH2 0x112 JUMP JUMPDEST POP JUMP JUMPDEST PUSH2 0xE9 PUSH2 0x142 JUMP JUMPDEST DUP1 ISZERO PUSH2 0xFA JUMPI POP PUSH1 0x1 SLOAD PUSH1 0x0 SLOAD DUP3 ADD LT JUMPDEST ISZERO PUSH2 0x10F JUMPI DUP1 PUSH1 0x0 DUP1 DUP3 DUP3 SLOAD ADD SWAP3 POP POP DUP2 SWAP1 SSTORE POP JUMPDEST POP JUMP JUMPDEST PUSH2 0x11A PUSH2 0x14B JUMP JUMPDEST DUP1 ISZERO PUSH2 0x12A JUMPI POP PUSH1 0x0 DUP2 PUSH1 0x0 SLOAD SUB GT JUMPDEST ISZERO PUSH2 0x13F JUMPI DUP1 PUSH1 0x0 DUP1 DUP3 DUP3 SLOAD SUB SWAP3 POP POP DUP2 SWAP1 SSTORE POP JUMPDEST POP JUMP JUMPDEST PUSH1 0x0 PUSH1 0x1 SWAP1 POP SWAP1 JUMP JUMPDEST PUSH1 0x0 PUSH1 0x1 SWAP1 POP SWAP1 JUMP INVALID LOG2 PUSH5 0x6970667358 0x22 SLT KECCAK256 0x5C CALLDATASIZE 0xDA 0x4F 0x5E RETURN 0xD4 0x23 0xC9 PUSH15 0xD6A2A5D2C8EFD57ED962CAD9C0730 DUP4 BALANCE SWAP11 PUSH2 0x3938 0xEB PUSH5 0x736F6C6343 STOP SMOD SUB STOP CALLER "
        },
        "methodIdentifiers": {
          "getValueOfBlockchain()": "7fcf86f0",
          "lender(uint256)": "9ab88914",
          "receiver(uint256)": "a81ccdc5"
        }
      }
    }
  }
}