{
  "_format": "hh-sol-artifact-1",
  "contractName": "HelloJi",
  "sourceName": "contracts/HelloJi.sol",
  "abi": [
    {
      "inputs": [],
      "stateMutability": "nonpayable",
      "type": "constructor"
    },
    {
      "inputs": [],
      "name": "getValueOfBlockchain",
      "outputs": [
        {
          "internalType": "uint256",
          "name": "",
          "type": "uint256"
        }
      ],
      "stateMutability": "view",
      "type": "function"
    },
    {
      "inputs": [
        {
          "internalType": "uint256",
          "name": "coin",
          "type": "uint256"
        }
      ],
      "name": "lender",
      "outputs": [],
      "stateMutability": "nonpayable",
      "type": "function"
    },
    {
      "inputs": [
        {
          "internalType": "uint256",
          "name": "coin",
          "type": "uint256"
        }
      ],
      "name": "receiver",
      "outputs": [],
      "stateMutability": "nonpayable",
      "type": "function"
    }
  ],
  "bytecode": "0x60806040526000805561271060015534801561001a57600080fd5b5061018a8061002a6000396000f3fe608060405234801561001057600080fd5b50600436106100415760003560e01c80637fcf86f0146100465780639ab8891414610064578063a81ccdc514610092575b600080fd5b61004e6100c0565b6040518082815260200191505060405180910390f35b6100906004803603602081101561007a57600080fd5b81019080803590602001909291905050506100c9565b005b6100be600480360360208110156100a857600080fd5b81019080803590602001909291905050506100d5565b005b60008054905090565b6100d2816100e1565b50565b6100de81610112565b50565b6100e9610142565b80156100fa57506001546000548201105b1561010f578060008082825401925050819055505b50565b61011a61014b565b801561012a575060008160005403115b1561013f578060008082825403925050819055505b50565b60006001905090565b6000600190509056fea26469706673582212205c36da4f5ef3d423c96e0d6a2a5d2c8efd57ed962cad9c073083319a613938eb64736f6c63430007030033",
  "linkReferences": {},
  "deployedLinkReferences": {}
}